{
  "contractName": "Shares",
  "abi": [
    {
      "constant": false,
      "inputs": [
        {
          "name": "share",
          "type": "uint256"
        }
      ],
      "name": "updateShares",
      "outputs": [],
      "payable": false,
      "stateMutability": "nonpayable",
      "type": "function"
    },
    {
      "constant": true,
      "inputs": [
        {
          "name": "addr",
          "type": "address"
        }
      ],
      "name": "getShares",
      "outputs": [
        {
          "name": "",
          "type": "uint256"
        }
      ],
      "payable": false,
      "stateMutability": "view",
      "type": "function"
    }
  ],
  "bytecode": "0x608060405234801561001057600080fd5b50610199806100206000396000f30060806040526004361061004c576000357c0100000000000000000000000000000000000000000000000000000000900463ffffffff168063b660846714610051578063f04da65b1461007e575b600080fd5b34801561005d57600080fd5b5061007c600480360381019080803590602001909291905050506100d5565b005b34801561008a57600080fd5b506100bf600480360381019080803573ffffffffffffffffffffffffffffffffffffffff169060200190929190505050610125565b6040518082815260200191505060405180910390f35b806100df33610125565b016000803373ffffffffffffffffffffffffffffffffffffffff1673ffffffffffffffffffffffffffffffffffffffff1681526020019081526020016000208190555050565b60008060008373ffffffffffffffffffffffffffffffffffffffff1673ffffffffffffffffffffffffffffffffffffffff1681526020019081526020016000205490509190505600a165627a7a72305820269bbfb54a1f866e1045532d09cf3816d578d2d337182d2b23dbdaa7f0d740a40029",
  "source": "pragma solidity ^0.4.8;\r\ncontract Shares {\r\n  mapping (address => uint) shares;\r\n \r\n  function updateShares(uint share) public {\r\n    shares[msg.sender] = getShares(msg.sender) + share;\r\n  }\r\n \r\n  function getShares(address addr) public view returns(uint) {\r\n    return shares[addr];\r\n  }\r\n}",
  "sourcePath": "C:\\Users\\G\\Documents\\Study Programming\\BlockChain\\Coding\\eth\\001 Solidity\\shares\\contracts\\shares.sol",
  "compiler": {
    "name": "solc",
    "version": "0.4.23+commit.124ca40d.Emscripten.clang"
  },
  "schemaVersion": "2.0.0",
  "updatedAt": "2018-05-15T23:11:42.258Z"
}