{
  "contractName": "Betting",
  "abi": [
    {
      "constant": true,
      "inputs": [],
      "name": "better2Played",
      "outputs": [
        {
          "name": "",
          "type": "bool"
        }
      ],
      "payable": false,
      "stateMutability": "view",
      "type": "function"
    },
    {
      "constant": true,
      "inputs": [],
      "name": "better2",
      "outputs": [
        {
          "name": "",
          "type": "address"
        }
      ],
      "payable": false,
      "stateMutability": "view",
      "type": "function"
    },
    {
      "constant": true,
      "inputs": [],
      "name": "better1Played",
      "outputs": [
        {
          "name": "",
          "type": "bool"
        }
      ],
      "payable": false,
      "stateMutability": "view",
      "type": "function"
    },
    {
      "constant": true,
      "inputs": [],
      "name": "theWinner",
      "outputs": [
        {
          "name": "",
          "type": "address"
        }
      ],
      "payable": false,
      "stateMutability": "view",
      "type": "function"
    },
    {
      "constant": true,
      "inputs": [],
      "name": "better1",
      "outputs": [
        {
          "name": "",
          "type": "address"
        }
      ],
      "payable": false,
      "stateMutability": "view",
      "type": "function"
    },
    {
      "constant": true,
      "inputs": [],
      "name": "gameFinished",
      "outputs": [
        {
          "name": "",
          "type": "bool"
        }
      ],
      "payable": false,
      "stateMutability": "view",
      "type": "function"
    },
    {
      "inputs": [],
      "payable": false,
      "stateMutability": "nonpayable",
      "type": "constructor"
    },
    {
      "anonymous": false,
      "inputs": [
        {
          "indexed": false,
          "name": "better1",
          "type": "address"
        },
        {
          "indexed": false,
          "name": "better2",
          "type": "address"
        }
      ],
      "name": "BettingStartsEvent",
      "type": "event"
    },
    {
      "anonymous": false,
      "inputs": [
        {
          "indexed": false,
          "name": "better1Deposit",
          "type": "uint256"
        },
        {
          "indexed": false,
          "name": "better2Deposit",
          "type": "uint256"
        }
      ],
      "name": "EndOfRoundEvent",
      "type": "event"
    },
    {
      "anonymous": false,
      "inputs": [
        {
          "indexed": false,
          "name": "winner",
          "type": "address"
        },
        {
          "indexed": false,
          "name": "gains",
          "type": "uint256"
        }
      ],
      "name": "EndOfBettingEvent",
      "type": "event"
    },
    {
      "constant": false,
      "inputs": [],
      "name": "registerAsAnOpponent",
      "outputs": [],
      "payable": false,
      "stateMutability": "nonpayable",
      "type": "function"
    },
    {
      "constant": false,
      "inputs": [],
      "name": "bet",
      "outputs": [],
      "payable": true,
      "stateMutability": "payable",
      "type": "function"
    },
    {
      "constant": false,
      "inputs": [],
      "name": "withdraw",
      "outputs": [],
      "payable": false,
      "stateMutability": "nonpayable",
      "type": "function"
    }
  ],
  "bytecode": "0x608060405234801561001057600080fd5b50336000806101000a81548173ffffffffffffffffffffffffffffffffffffffff021916908373ffffffffffffffffffffffffffffffffffffffff160217905550610946806100606000396000f300608060405260043610610099576000357c0100000000000000000000000000000000000000000000000000000000900463ffffffff16806311610c251461009e578063140528e0146100a85780631bee51f3146100d75780633ccfd60b1461012e578063898a4bb2146101455780639d24e48214610174578063a8b42f1f146101cb578063d7f31939146101e2578063f0f3249714610239575b600080fd5b6100a6610268565b005b3480156100b457600080fd5b506100bd6104d5565b604051808215151515815260200191505060405180910390f35b3480156100e357600080fd5b506100ec6104e8565b604051808273ffffffffffffffffffffffffffffffffffffffff1673ffffffffffffffffffffffffffffffffffffffff16815260200191505060405180910390f35b34801561013a57600080fd5b5061014361050e565b005b34801561015157600080fd5b5061015a6105db565b604051808215151515815260200191505060405180910390f35b34801561018057600080fd5b506101896105ee565b604051808273ffffffffffffffffffffffffffffffffffffffff1673ffffffffffffffffffffffffffffffffffffffff16815260200191505060405180910390f35b3480156101d757600080fd5b506101e0610614565b005b3480156101ee57600080fd5b506101f761078e565b604051808273ffffffffffffffffffffffffffffffffffffffff1673ffffffffffffffffffffffffffffffffffffffff16815260200191505060405180910390f35b34801561024557600080fd5b5061024e6107b3565b604051808215151515815260200191505060405180910390f35b600460009054906101000a900460ff1615801561032957506000809054906101000a900473ffffffffffffffffffffffffffffffffffffffff1673ffffffffffffffffffffffffffffffffffffffff163373ffffffffffffffffffffffffffffffffffffffff1614806103285750600160009054906101000a900473ffffffffffffffffffffffffffffffffffffffff1673ffffffffffffffffffffffffffffffffffffffff163373ffffffffffffffffffffffffffffffffffffffff16145b5b151561033457600080fd5b6000809054906101000a900473ffffffffffffffffffffffffffffffffffffffff1673ffffffffffffffffffffffffffffffffffffffff163373ffffffffffffffffffffffffffffffffffffffff1614156103d55760001515600160149054906101000a900460ff1615151415156103ab57600080fd5b60018060146101000a81548160ff021916908315150217905550346002540160028190555061041d565b60001515600160159054906101000a900460ff1615151415156103f757600080fd5b60018060156101000a81548160ff02191690831515021790555034600354016003819055505b600160149054906101000a900460ff1680156104455750600160159054906101000a900460ff165b156104d357600260035402600254101515610489576104846000809054906101000a900473ffffffffffffffffffffffffffffffffffffffff166107c6565b6104d2565b60028054026003541015156104c8576104c3600160009054906101000a900473ffffffffffffffffffffffffffffffffffffffff166107c6565b6104d1565b6104d061089f565b5b5b5b565b600160159054906101000a900460ff1681565b600160009054906101000a900473ffffffffffffffffffffffffffffffffffffffff1681565b6000600460009054906101000a900460ff16801561057957503373ffffffffffffffffffffffffffffffffffffffff16600460019054906101000a900473ffffffffffffffffffffffffffffffffffffffff1673ffffffffffffffffffffffffffffffffffffffff16145b151561058457600080fd5b600554905060006005819055503373ffffffffffffffffffffffffffffffffffffffff166108fc829081150290604051600060405180830381858888f193505050501580156105d7573d6000803e3d6000fd5b5050565b600160149054906101000a900460ff1681565b600460019054906101000a900473ffffffffffffffffffffffffffffffffffffffff1681565b600073ffffffffffffffffffffffffffffffffffffffff16600160009054906101000a900473ffffffffffffffffffffffffffffffffffffffff1673ffffffffffffffffffffffffffffffffffffffff1614151561067157600080fd5b33600160006101000a81548173ffffffffffffffffffffffffffffffffffffffff021916908373ffffffffffffffffffffffffffffffffffffffff1602179055507fc68fbb989c656c22a23216e6d3ee005caf42c7c79ef4547bc5733790ea0a25526000809054906101000a900473ffffffffffffffffffffffffffffffffffffffff16600160009054906101000a900473ffffffffffffffffffffffffffffffffffffffff16604051808373ffffffffffffffffffffffffffffffffffffffff1673ffffffffffffffffffffffffffffffffffffffff1681526020018273ffffffffffffffffffffffffffffffffffffffff1673ffffffffffffffffffffffffffffffffffffffff1681526020019250505060405180910390a1565b6000809054906101000a900473ffffffffffffffffffffffffffffffffffffffff1681565b600460009054906101000a900460ff1681565b6001600460006101000a81548160ff02191690831515021790555080600460016101000a81548173ffffffffffffffffffffffffffffffffffffffff021916908373ffffffffffffffffffffffffffffffffffffffff160217905550600354600254016005819055507fb8575cecc3942a01d85c38074d5820b370fe196103419d79a7001972a9d9269981600554604051808373ffffffffffffffffffffffffffffffffffffffff1673ffffffffffffffffffffffffffffffffffffffff1681526020018281526020019250505060405180910390a150565b6000600160146101000a81548160ff0219169083151502179055506000600160156101000a81548160ff0219169083151502179055507f4a06b026e39d5ecf4150ef1983227e240bcd23677c8d89479f9521c4e7bed63e600254600354604051808381526020018281526020019250505060405180910390a15600a165627a7a723058207eae0ae46b5b3e3c034f796b072edeac1c8c774fabe3ffc8492c56098483b99a0029",
  "source": "pragma solidity ^0.4.22;\n\ncontract Betting {\n\n    //Two players\n    address public better1;\n    address public better2;\n\n    bool public better1Played;\n    bool public better2Played;\n\n    uint private better1Deposit;\n    uint private better2Deposit;\n\n    bool public gameFinished; \n    address public theWinner;\n    uint gains;\n\n    //3 Events for match\n    event BettingStartsEvent(address better1, address better2);\n    event EndOfRoundEvent(uint better1Deposit, uint better2Deposit);\n    event EndOfBettingEvent(address winner, uint gains);\n\n    //Player 1 is the person who invoked the contract\n    constructor()  public {\n        better1 = msg.sender;\n    }\n\n    //Let player 2 register\n    function registerAsAnOpponent() public {\n        \n        //Make sure nobody else is registered as player 2\n        require(better2 == address(0));\n\n        better2 = msg.sender;\n\n        //Start the match\n        emit BettingStartsEvent(better1, better2);\n    }\n\n\n    //Each player starts playing\n    //payable -> function can receive money\n    //If both played, check if there is a winner\n    function bet() public payable {\n        require(!gameFinished && (msg.sender == better1 || msg.sender == better2));\n\n        if(msg.sender == better1) {\n            require(better1Played == false);\n            better1Played = true;\n            better1Deposit = better1Deposit + msg.value;\n    \t} else { \n            require(better2Played == false);\n            better2Played = true;\n            better2Deposit = better2Deposit + msg.value;\n    \t}\n        if(better1Played && better2Played) {\n            if(better1Deposit >= better2Deposit * 2) {\n                endOfGame(better1);\n            } else if (better2Deposit >= better1Deposit * 2) {\n                endOfGame(better2);\n            } else {\n                endOfRound();\n            }\n    \t}\n    }\n\n    function endOfRound() internal {\n        better1Played = false;\n        better2Played = false;\n\n        emit EndOfRoundEvent(better1Deposit, better2Deposit);\n    }\n\n    function endOfGame(address winner) internal {\n        gameFinished = true;\n        theWinner = winner;\n\n        gains = better1Deposit + better2Deposit;\n        emit EndOfBettingEvent(winner, gains);\n    }\n\n    //Withdraw money using withdrawal pattern\n    //Direct send call is not recommended\n    function withdraw() public {\n        require(gameFinished && theWinner == msg.sender);\n\n        uint amount = gains;\n        // Remember to zero the pending gains before sending, to prevent re-entrancy attacks\n        gains = 0;\n        msg.sender.transfer(amount);\n    }\n}",
  "sourcePath": "/home/g/Documents/Github/eth/002_/contracts/Betting.sol",
  "compiler": {
    "name": "solc",
    "version": "0.4.24+commit.e67f0147.Emscripten.clang"
  },
  "schemaVersion": "2.0.1",
  "updatedAt": "2018-06-24T20:25:04.365Z"
}